{
  "contractName": "NFTToken",
  "abi": [
    {
      "inputs": [],
      "stateMutability": "nonpayable",
      "type": "constructor"
    },
    {
      "anonymous": false,
      "inputs": [
        {
          "indexed": true,
          "internalType": "address",
          "name": "owner",
          "type": "address"
        },
        {
          "indexed": true,
          "internalType": "address",
          "name": "approved",
          "type": "address"
        },
        {
          "indexed": true,
          "internalType": "uint256",
          "name": "tokenId",
          "type": "uint256"
        }
      ],
      "name": "Approval",
      "type": "event"
    },
    {
      "anonymous": false,
      "inputs": [
        {
          "indexed": true,
          "internalType": "address",
          "name": "owner",
          "type": "address"
        },
        {
          "indexed": true,
          "internalType": "address",
          "name": "operator",
          "type": "address"
        },
        {
          "indexed": false,
          "internalType": "bool",
          "name": "approved",
          "type": "bool"
        }
      ],
      "name": "ApprovalForAll",
      "type": "event"
    },
    {
      "anonymous": false,
      "inputs": [
        {
          "indexed": false,
          "internalType": "uint256",
          "name": "_balance",
          "type": "uint256"
        },
        {
          "indexed": false,
          "internalType": "uint256",
          "name": "_tokenId",
          "type": "uint256"
        },
        {
          "indexed": false,
          "internalType": "address",
          "name": "_msgSender",
          "type": "address"
        },
        {
          "indexed": false,
          "internalType": "string",
          "name": "_tokenURI",
          "type": "string"
        },
        {
          "indexed": false,
          "internalType": "address",
          "name": "_tokenOwner",
          "type": "address"
        }
      ],
      "name": "NFTMinted",
      "type": "event"
    },
    {
      "anonymous": false,
      "inputs": [
        {
          "indexed": true,
          "internalType": "address",
          "name": "from",
          "type": "address"
        },
        {
          "indexed": true,
          "internalType": "address",
          "name": "to",
          "type": "address"
        },
        {
          "indexed": true,
          "internalType": "uint256",
          "name": "tokenId",
          "type": "uint256"
        }
      ],
      "name": "Transfer",
      "type": "event"
    },
    {
      "inputs": [
        {
          "internalType": "address",
          "name": "to",
          "type": "address"
        },
        {
          "internalType": "uint256",
          "name": "tokenId",
          "type": "uint256"
        }
      ],
      "name": "approve",
      "outputs": [],
      "stateMutability": "nonpayable",
      "type": "function"
    },
    {
      "inputs": [
        {
          "internalType": "address",
          "name": "owner",
          "type": "address"
        }
      ],
      "name": "balanceOf",
      "outputs": [
        {
          "internalType": "uint256",
          "name": "",
          "type": "uint256"
        }
      ],
      "stateMutability": "view",
      "type": "function",
      "constant": true
    },
    {
      "inputs": [
        {
          "internalType": "uint256",
          "name": "tokenId",
          "type": "uint256"
        }
      ],
      "name": "getApproved",
      "outputs": [
        {
          "internalType": "address",
          "name": "",
          "type": "address"
        }
      ],
      "stateMutability": "view",
      "type": "function",
      "constant": true
    },
    {
      "inputs": [
        {
          "internalType": "address",
          "name": "owner",
          "type": "address"
        },
        {
          "internalType": "address",
          "name": "operator",
          "type": "address"
        }
      ],
      "name": "isApprovedForAll",
      "outputs": [
        {
          "internalType": "bool",
          "name": "",
          "type": "bool"
        }
      ],
      "stateMutability": "view",
      "type": "function",
      "constant": true
    },
    {
      "inputs": [],
      "name": "name",
      "outputs": [
        {
          "internalType": "string",
          "name": "",
          "type": "string"
        }
      ],
      "stateMutability": "view",
      "type": "function",
      "constant": true
    },
    {
      "inputs": [
        {
          "internalType": "uint256",
          "name": "tokenId",
          "type": "uint256"
        }
      ],
      "name": "ownerOf",
      "outputs": [
        {
          "internalType": "address",
          "name": "",
          "type": "address"
        }
      ],
      "stateMutability": "view",
      "type": "function",
      "constant": true
    },
    {
      "inputs": [
        {
          "internalType": "address",
          "name": "from",
          "type": "address"
        },
        {
          "internalType": "address",
          "name": "to",
          "type": "address"
        },
        {
          "internalType": "uint256",
          "name": "tokenId",
          "type": "uint256"
        }
      ],
      "name": "safeTransferFrom",
      "outputs": [],
      "stateMutability": "nonpayable",
      "type": "function"
    },
    {
      "inputs": [
        {
          "internalType": "address",
          "name": "from",
          "type": "address"
        },
        {
          "internalType": "address",
          "name": "to",
          "type": "address"
        },
        {
          "internalType": "uint256",
          "name": "tokenId",
          "type": "uint256"
        },
        {
          "internalType": "bytes",
          "name": "data",
          "type": "bytes"
        }
      ],
      "name": "safeTransferFrom",
      "outputs": [],
      "stateMutability": "nonpayable",
      "type": "function"
    },
    {
      "inputs": [
        {
          "internalType": "address",
          "name": "operator",
          "type": "address"
        },
        {
          "internalType": "bool",
          "name": "approved",
          "type": "bool"
        }
      ],
      "name": "setApprovalForAll",
      "outputs": [],
      "stateMutability": "nonpayable",
      "type": "function"
    },
    {
      "inputs": [
        {
          "internalType": "bytes4",
          "name": "interfaceId",
          "type": "bytes4"
        }
      ],
      "name": "supportsInterface",
      "outputs": [
        {
          "internalType": "bool",
          "name": "",
          "type": "bool"
        }
      ],
      "stateMutability": "view",
      "type": "function",
      "constant": true
    },
    {
      "inputs": [],
      "name": "symbol",
      "outputs": [
        {
          "internalType": "string",
          "name": "",
          "type": "string"
        }
      ],
      "stateMutability": "view",
      "type": "function",
      "constant": true
    },
    {
      "inputs": [
        {
          "internalType": "uint256",
          "name": "index",
          "type": "uint256"
        }
      ],
      "name": "tokenByIndex",
      "outputs": [
        {
          "internalType": "uint256",
          "name": "",
          "type": "uint256"
        }
      ],
      "stateMutability": "view",
      "type": "function",
      "constant": true
    },
    {
      "inputs": [
        {
          "internalType": "address",
          "name": "owner",
          "type": "address"
        },
        {
          "internalType": "uint256",
          "name": "index",
          "type": "uint256"
        }
      ],
      "name": "tokenOfOwnerByIndex",
      "outputs": [
        {
          "internalType": "uint256",
          "name": "",
          "type": "uint256"
        }
      ],
      "stateMutability": "view",
      "type": "function",
      "constant": true
    },
    {
      "inputs": [
        {
          "internalType": "uint256",
          "name": "tokenId",
          "type": "uint256"
        }
      ],
      "name": "tokenURI",
      "outputs": [
        {
          "internalType": "string",
          "name": "",
          "type": "string"
        }
      ],
      "stateMutability": "view",
      "type": "function",
      "constant": true
    },
    {
      "inputs": [],
      "name": "totalSupply",
      "outputs": [
        {
          "internalType": "uint256",
          "name": "",
          "type": "uint256"
        }
      ],
      "stateMutability": "view",
      "type": "function",
      "constant": true
    },
    {
      "inputs": [
        {
          "internalType": "address",
          "name": "from",
          "type": "address"
        },
        {
          "internalType": "address",
          "name": "to",
          "type": "address"
        },
        {
          "internalType": "uint256",
          "name": "tokenId",
          "type": "uint256"
        }
      ],
      "name": "transferFrom",
      "outputs": [],
      "stateMutability": "nonpayable",
      "type": "function"
    },
    {
      "inputs": [
        {
          "internalType": "bytes",
          "name": "data",
          "type": "bytes"
        }
      ],
      "name": "NFTMint",
      "outputs": [],
      "stateMutability": "nonpayable",
      "type": "function"
    },
    {
      "inputs": [],
      "name": "testMint",
      "outputs": [],
      "stateMutability": "nonpayable",
      "type": "function"
    }
  ],
  "bytecode": "0x60806040523480156200001157600080fd5b506040518060400160405280600781526020017f4e465374617274000000000000000000000000000000000000000000000000008152506040518060400160405280600381526020017f4e4653000000000000000000000000000000000000000000000000000000000081525081600090816200008f919062000324565b508060019081620000a1919062000324565b5050506200040b565b600081519050919050565b7f4e487b7100000000000000000000000000000000000000000000000000000000600052604160045260246000fd5b7f4e487b7100000000000000000000000000000000000000000000000000000000600052602260045260246000fd5b600060028204905060018216806200012c57607f821691505b602082108103620001425762000141620000e4565b5b50919050565b60008190508160005260206000209050919050565b60006020601f8301049050919050565b600082821b905092915050565b600060088302620001ac7fffffffffffffffffffffffffffffffffffffffffffffffffffffffffffffffff826200016d565b620001b886836200016d565b95508019841693508086168417925050509392505050565b6000819050919050565b6000819050919050565b600062000205620001ff620001f984620001d0565b620001da565b620001d0565b9050919050565b6000819050919050565b6200022183620001e4565b6200023962000230826200020c565b8484546200017a565b825550505050565b600090565b6200025062000241565b6200025d81848462000216565b505050565b5b8181101562000285576200027960008262000246565b60018101905062000263565b5050565b601f821115620002d4576200029e8162000148565b620002a9846200015d565b81016020851015620002b9578190505b620002d1620002c8856200015d565b83018262000262565b50505b505050565b600082821c905092915050565b6000620002f960001984600802620002d9565b1980831691505092915050565b6000620003148383620002e6565b9150826002028217905092915050565b6200032f82620000aa565b67ffffffffffffffff8111156200034b576200034a620000b5565b5b62000357825462000113565b6200036482828562000289565b600060209050601f8311600181146200039c576000841562000387578287015190505b62000393858262000306565b86555062000403565b601f198416620003ac8662000148565b60005b82811015620003d657848901518255600182019150602085019450602081019050620003af565b86831015620003f65784890151620003f2601f891682620002e6565b8355505b6001600288020188555050505b505050505050565b612f79806200041b6000396000f3fe608060405234801561001057600080fd5b50600436106101165760003560e01c80636352211e116100a25780639642ddaf116100715780639642ddaf14610305578063a22cb4651461030f578063b88d4fde1461032b578063c87b56dd14610347578063e985e9c51461037757610116565b80636352211e1461026b57806370a082311461029b578063763284c6146102cb57806395d89b41146102e757610116565b806318160ddd116100e957806318160ddd146101b557806323b872dd146101d35780632f745c59146101ef57806342842e0e1461021f5780634f6ccce71461023b57610116565b806301ffc9a71461011b57806306fdde031461014b578063081812fc14610169578063095ea7b314610199575b600080fd5b61013560048036038101906101309190611f5b565b6103a7565b6040516101429190611fa3565b60405180910390f35b610153610421565b604051610160919061204e565b60405180910390f35b610183600480360381019061017e91906120a6565b6104b3565b6040516101909190612114565b60405180910390f35b6101b360048036038101906101ae919061215b565b6104f9565b005b6101bd610610565b6040516101ca91906121aa565b60405180910390f35b6101ed60048036038101906101e891906121c5565b61061d565b005b6102096004803603810190610204919061215b565b61067d565b60405161021691906121aa565b60405180910390f35b610239600480360381019061023491906121c5565b610722565b005b610255600480360381019061025091906120a6565b610742565b60405161026291906121aa565b60405180910390f35b610285600480360381019061028091906120a6565b6107b3565b6040516102929190612114565b60405180910390f35b6102b560048036038101906102b09190612218565b610839565b6040516102c291906121aa565b60405180910390f35b6102e560048036038101906102e0919061237a565b6108f0565b005b6102ef610917565b6040516102fc919061204e565b60405180910390f35b61030d6109a9565b005b610329600480360381019061032491906123ef565b610a43565b005b6103456004803603810190610340919061242f565b610a59565b005b610361600480360381019061035c91906120a6565b610abb565b60405161036e919061204e565b60405180910390f35b610391600480360381019061038c91906124b2565b610b23565b60405161039e9190611fa3565b60405180910390f35b60007f780e9d63000000000000000000000000000000000000000000000000000000007bffffffffffffffffffffffffffffffffffffffffffffffffffffffff1916827bffffffffffffffffffffffffffffffffffffffffffffffffffffffff1916148061041a575061041982610bb7565b5b9050919050565b60606000805461043090612521565b80601f016020809104026020016040519081016040528092919081815260200182805461045c90612521565b80156104a95780601f1061047e576101008083540402835291602001916104a9565b820191906000526020600020905b81548152906001019060200180831161048c57829003601f168201915b5050505050905090565b60006104be82610c99565b6004600083815260200190815260200160002060009054906101000a900473ffffffffffffffffffffffffffffffffffffffff169050919050565b6000610504826107b3565b90508073ffffffffffffffffffffffffffffffffffffffff168373ffffffffffffffffffffffffffffffffffffffff1603610574576040517f08c379a000000000000000000000000000000000000000000000000000000000815260040161056b906125c4565b60405180910390fd5b8073ffffffffffffffffffffffffffffffffffffffff16610593610ce4565b73ffffffffffffffffffffffffffffffffffffffff1614806105c257506105c1816105bc610ce4565b610b23565b5b610601576040517f08c379a00000000000000000000000000000000000000000000000000000000081526004016105f890612656565b60405180910390fd5b61060b8383610cec565b505050565b6000600880549050905090565b61062e610628610ce4565b82610da5565b61066d576040517f08c379a0000000000000000000000000000000000000000000000000000000008152600401610664906126e8565b60405180910390fd5b610678838383610e3a565b505050565b600061068883610839565b82106106c9576040517f08c379a00000000000000000000000000000000000000000000000000000000081526004016106c09061277a565b60405180910390fd5b600660008473ffffffffffffffffffffffffffffffffffffffff1673ffffffffffffffffffffffffffffffffffffffff168152602001908152602001600020600083815260200190815260200160002054905092915050565b61073d83838360405180602001604052806000815250610a59565b505050565b600061074c610610565b821061078d576040517f08c379a00000000000000000000000000000000000000000000000000000000081526004016107849061280c565b60405180910390fd5b600882815481106107a1576107a061282c565b5b90600052602060002001549050919050565b6000806107bf83611133565b9050600073ffffffffffffffffffffffffffffffffffffffff168173ffffffffffffffffffffffffffffffffffffffff1603610830576040517f08c379a0000000000000000000000000000000000000000000000000000000008152600401610827906128a7565b60405180910390fd5b80915050919050565b60008073ffffffffffffffffffffffffffffffffffffffff168273ffffffffffffffffffffffffffffffffffffffff16036108a9576040517f08c379a00000000000000000000000000000000000000000000000000000000081526004016108a090612939565b60405180910390fd5b600360008373ffffffffffffffffffffffffffffffffffffffff1673ffffffffffffffffffffffffffffffffffffffff168152602001908152602001600020549050919050565b60006108fc600a611170565b9050610908600a61117e565b610913338284611194565b5050565b60606001805461092690612521565b80601f016020809104026020016040519081016040528092919081815260200182805461095290612521565b801561099f5780601f106109745761010080835404028352916020019161099f565b820191906000526020600020905b81548152906001019060200180831161098257829003601f168201915b5050505050905090565b60006109b5600a611170565b90506109c1600a61117e565b6109ca33610839565b506109d533826111ef565b6109de81610abb565b506109e8816107b3565b507fe81e4c49d1296a72cb7fde013cb6500f3a725b1cf760ab845bf1691b866eadd1610a1333610839565b8233610a1e85610abb565b610a27866107b3565b604051610a38959493929190612959565b60405180910390a150565b610a55610a4e610ce4565b838361120d565b5050565b610a6a610a64610ce4565b83610da5565b610aa9576040517f08c379a0000000000000000000000000000000000000000000000000000000008152600401610aa0906126e8565b60405180910390fd5b610ab584848484611379565b50505050565b6060610ac682610c99565b6000610ad06113d5565b90506000815111610af05760405180602001604052806000815250610b1b565b80610afa846113ec565b604051602001610b0b9291906129ef565b6040516020818303038152906040525b915050919050565b6000600560008473ffffffffffffffffffffffffffffffffffffffff1673ffffffffffffffffffffffffffffffffffffffff16815260200190815260200160002060008373ffffffffffffffffffffffffffffffffffffffff1673ffffffffffffffffffffffffffffffffffffffff16815260200190815260200160002060009054906101000a900460ff16905092915050565b60007f80ac58cd000000000000000000000000000000000000000000000000000000007bffffffffffffffffffffffffffffffffffffffffffffffffffffffff1916827bffffffffffffffffffffffffffffffffffffffffffffffffffffffff19161480610c8257507f5b5e139f000000000000000000000000000000000000000000000000000000007bffffffffffffffffffffffffffffffffffffffffffffffffffffffff1916827bffffffffffffffffffffffffffffffffffffffffffffffffffffffff1916145b80610c925750610c91826114ba565b5b9050919050565b610ca281611524565b610ce1576040517f08c379a0000000000000000000000000000000000000000000000000000000008152600401610cd8906128a7565b60405180910390fd5b50565b600033905090565b816004600083815260200190815260200160002060006101000a81548173ffffffffffffffffffffffffffffffffffffffff021916908373ffffffffffffffffffffffffffffffffffffffff160217905550808273ffffffffffffffffffffffffffffffffffffffff16610d5f836107b3565b73ffffffffffffffffffffffffffffffffffffffff167f8c5be1e5ebec7d5bd14f71427d1e84f3dd0314c0f7b2291e5b200ac8c7c3b92560405160405180910390a45050565b600080610db1836107b3565b90508073ffffffffffffffffffffffffffffffffffffffff168473ffffffffffffffffffffffffffffffffffffffff161480610df35750610df28185610b23565b5b80610e3157508373ffffffffffffffffffffffffffffffffffffffff16610e19846104b3565b73ffffffffffffffffffffffffffffffffffffffff16145b91505092915050565b8273ffffffffffffffffffffffffffffffffffffffff16610e5a826107b3565b73ffffffffffffffffffffffffffffffffffffffff1614610eb0576040517f08c379a0000000000000000000000000000000000000000000000000000000008152600401610ea790612a85565b60405180910390fd5b600073ffffffffffffffffffffffffffffffffffffffff168273ffffffffffffffffffffffffffffffffffffffff1603610f1f576040517f08c379a0000000000000000000000000000000000000000000000000000000008152600401610f1690612b17565b60405180910390fd5b610f2c8383836001611565565b8273ffffffffffffffffffffffffffffffffffffffff16610f4c826107b3565b73ffffffffffffffffffffffffffffffffffffffff1614610fa2576040517f08c379a0000000000000000000000000000000000000000000000000000000008152600401610f9990612a85565b60405180910390fd5b6004600082815260200190815260200160002060006101000a81549073ffffffffffffffffffffffffffffffffffffffff02191690556001600360008573ffffffffffffffffffffffffffffffffffffffff1673ffffffffffffffffffffffffffffffffffffffff168152602001908152602001600020600082825403925050819055506001600360008473ffffffffffffffffffffffffffffffffffffffff1673ffffffffffffffffffffffffffffffffffffffff16815260200190815260200160002060008282540192505081905550816002600083815260200190815260200160002060006101000a81548173ffffffffffffffffffffffffffffffffffffffff021916908373ffffffffffffffffffffffffffffffffffffffff160217905550808273ffffffffffffffffffffffffffffffffffffffff168473ffffffffffffffffffffffffffffffffffffffff167fddf252ad1be2c89b69c2b068fc378daa952ba7f163c4a11628f55a4df523b3ef60405160405180910390a461112e83838360016116c3565b505050565b60006002600083815260200190815260200160002060009054906101000a900473ffffffffffffffffffffffffffffffffffffffff169050919050565b600081600001549050919050565b6001816000016000828254019250508190555050565b61119e83836116c9565b6111ab60008484846118e6565b6111ea576040517f08c379a00000000000000000000000000000000000000000000000000000000081526004016111e190612ba9565b60405180910390fd5b505050565b611209828260405180602001604052806000815250611194565b5050565b8173ffffffffffffffffffffffffffffffffffffffff168373ffffffffffffffffffffffffffffffffffffffff160361127b576040517f08c379a000000000000000000000000000000000000000000000000000000000815260040161127290612c15565b60405180910390fd5b80600560008573ffffffffffffffffffffffffffffffffffffffff1673ffffffffffffffffffffffffffffffffffffffff16815260200190815260200160002060008473ffffffffffffffffffffffffffffffffffffffff1673ffffffffffffffffffffffffffffffffffffffff16815260200190815260200160002060006101000a81548160ff0219169083151502179055508173ffffffffffffffffffffffffffffffffffffffff168373ffffffffffffffffffffffffffffffffffffffff167f17307eab39ab6107e8899845ad3d59bd9653f200f220920489ca2b5937696c318360405161136c9190611fa3565b60405180910390a3505050565b611384848484610e3a565b611390848484846118e6565b6113cf576040517f08c379a00000000000000000000000000000000000000000000000000000000081526004016113c690612ba9565b60405180910390fd5b50505050565b606060405180602001604052806000815250905090565b6060600060016113fb84611a6d565b01905060008167ffffffffffffffff81111561141a5761141961224f565b5b6040519080825280601f01601f19166020018201604052801561144c5781602001600182028036833780820191505090505b509050600082602001820190505b6001156114af578080600190039150507f3031323334353637383961626364656600000000000000000000000000000000600a86061a8153600a85816114a3576114a2612c35565b5b0494506000850361145a575b819350505050919050565b60007f01ffc9a7000000000000000000000000000000000000000000000000000000007bffffffffffffffffffffffffffffffffffffffffffffffffffffffff1916827bffffffffffffffffffffffffffffffffffffffffffffffffffffffff1916149050919050565b60008073ffffffffffffffffffffffffffffffffffffffff1661154683611133565b73ffffffffffffffffffffffffffffffffffffffff1614159050919050565b61157184848484611bc0565b60018111156115b5576040517f08c379a00000000000000000000000000000000000000000000000000000000081526004016115ac90612cd6565b60405180910390fd5b6000829050600073ffffffffffffffffffffffffffffffffffffffff168573ffffffffffffffffffffffffffffffffffffffff16036115fc576115f781611bc6565b61163b565b8373ffffffffffffffffffffffffffffffffffffffff168573ffffffffffffffffffffffffffffffffffffffff161461163a576116398582611c0f565b5b5b600073ffffffffffffffffffffffffffffffffffffffff168473ffffffffffffffffffffffffffffffffffffffff160361167d5761167881611d7c565b6116bc565b8473ffffffffffffffffffffffffffffffffffffffff168473ffffffffffffffffffffffffffffffffffffffff16146116bb576116ba8482611e4d565b5b5b5050505050565b50505050565b600073ffffffffffffffffffffffffffffffffffffffff168273ffffffffffffffffffffffffffffffffffffffff1603611738576040517f08c379a000000000000000000000000000000000000000000000000000000000815260040161172f90612d42565b60405180910390fd5b61174181611524565b15611781576040517f08c379a000000000000000000000000000000000000000000000000000000000815260040161177890612dae565b60405180910390fd5b61178f600083836001611565565b61179881611524565b156117d8576040517f08c379a00000000000000000000000000000000000000000000000000000000081526004016117cf90612dae565b60405180910390fd5b6001600360008473ffffffffffffffffffffffffffffffffffffffff1673ffffffffffffffffffffffffffffffffffffffff16815260200190815260200160002060008282540192505081905550816002600083815260200190815260200160002060006101000a81548173ffffffffffffffffffffffffffffffffffffffff021916908373ffffffffffffffffffffffffffffffffffffffff160217905550808273ffffffffffffffffffffffffffffffffffffffff16600073ffffffffffffffffffffffffffffffffffffffff167fddf252ad1be2c89b69c2b068fc378daa952ba7f163c4a11628f55a4df523b3ef60405160405180910390a46118e26000838360016116c3565b5050565b60006119078473ffffffffffffffffffffffffffffffffffffffff16611ecc565b15611a60578373ffffffffffffffffffffffffffffffffffffffff1663150b7a02611930610ce4565b8786866040518563ffffffff1660e01b81526004016119529493929190612e23565b6020604051808303816000875af192505050801561198e57506040513d601f19601f8201168201806040525081019061198b9190612e84565b60015b611a10573d80600081146119be576040519150601f19603f3d011682016040523d82523d6000602084013e6119c3565b606091505b506000815103611a08576040517f08c379a00000000000000000000000000000000000000000000000000000000081526004016119ff90612ba9565b60405180910390fd5b805181602001fd5b63150b7a0260e01b7bffffffffffffffffffffffffffffffffffffffffffffffffffffffff1916817bffffffffffffffffffffffffffffffffffffffffffffffffffffffff191614915050611a65565b600190505b949350505050565b600080600090507a184f03e93ff9f4daa797ed6e38ed64bf6a1f0100000000000000008310611acb577a184f03e93ff9f4daa797ed6e38ed64bf6a1f0100000000000000008381611ac157611ac0612c35565b5b0492506040810190505b6d04ee2d6d415b85acef81000000008310611b08576d04ee2d6d415b85acef81000000008381611afe57611afd612c35565b5b0492506020810190505b662386f26fc100008310611b3757662386f26fc100008381611b2d57611b2c612c35565b5b0492506010810190505b6305f5e1008310611b60576305f5e1008381611b5657611b55612c35565b5b0492506008810190505b6127108310611b85576127108381611b7b57611b7a612c35565b5b0492506004810190505b60648310611ba85760648381611b9e57611b9d612c35565b5b0492506002810190505b600a8310611bb7576001810190505b80915050919050565b50505050565b6008805490506009600083815260200190815260200160002081905550600881908060018154018082558091505060019003906000526020600020016000909190919091505550565b60006001611c1c84610839565b611c269190612ee0565b9050600060076000848152602001908152602001600020549050818114611d0b576000600660008673ffffffffffffffffffffffffffffffffffffffff1673ffffffffffffffffffffffffffffffffffffffff168152602001908152602001600020600084815260200190815260200160002054905080600660008773ffffffffffffffffffffffffffffffffffffffff1673ffffffffffffffffffffffffffffffffffffffff168152602001908152602001600020600084815260200190815260200160002081905550816007600083815260200190815260200160002081905550505b6007600084815260200190815260200160002060009055600660008573ffffffffffffffffffffffffffffffffffffffff1673ffffffffffffffffffffffffffffffffffffffff16815260200190815260200160002060008381526020019081526020016000206000905550505050565b60006001600880549050611d909190612ee0565b9050600060096000848152602001908152602001600020549050600060088381548110611dc057611dbf61282c565b5b906000526020600020015490508060088381548110611de257611de161282c565b5b906000526020600020018190555081600960008381526020019081526020016000208190555060096000858152602001908152602001600020600090556008805480611e3157611e30612f14565b5b6001900381819060005260206000200160009055905550505050565b6000611e5883610839565b905081600660008573ffffffffffffffffffffffffffffffffffffffff1673ffffffffffffffffffffffffffffffffffffffff168152602001908152602001600020600083815260200190815260200160002081905550806007600084815260200190815260200160002081905550505050565b6000808273ffffffffffffffffffffffffffffffffffffffff163b119050919050565b6000604051905090565b600080fd5b600080fd5b60007fffffffff0000000000000000000000000000000000000000000000000000000082169050919050565b611f3881611f03565b8114611f4357600080fd5b50565b600081359050611f5581611f2f565b92915050565b600060208284031215611f7157611f70611ef9565b5b6000611f7f84828501611f46565b91505092915050565b60008115159050919050565b611f9d81611f88565b82525050565b6000602082019050611fb86000830184611f94565b92915050565b600081519050919050565b600082825260208201905092915050565b60005b83811015611ff8578082015181840152602081019050611fdd565b60008484015250505050565b6000601f19601f8301169050919050565b600061202082611fbe565b61202a8185611fc9565b935061203a818560208601611fda565b61204381612004565b840191505092915050565b600060208201905081810360008301526120688184612015565b905092915050565b6000819050919050565b61208381612070565b811461208e57600080fd5b50565b6000813590506120a08161207a565b92915050565b6000602082840312156120bc576120bb611ef9565b5b60006120ca84828501612091565b91505092915050565b600073ffffffffffffffffffffffffffffffffffffffff82169050919050565b60006120fe826120d3565b9050919050565b61210e816120f3565b82525050565b60006020820190506121296000830184612105565b92915050565b612138816120f3565b811461214357600080fd5b50565b6000813590506121558161212f565b92915050565b6000806040838503121561217257612171611ef9565b5b600061218085828601612146565b925050602061219185828601612091565b9150509250929050565b6121a481612070565b82525050565b60006020820190506121bf600083018461219b565b92915050565b6000806000606084860312156121de576121dd611ef9565b5b60006121ec86828701612146565b93505060206121fd86828701612146565b925050604061220e86828701612091565b9150509250925092565b60006020828403121561222e5761222d611ef9565b5b600061223c84828501612146565b91505092915050565b600080fd5b600080fd5b7f4e487b7100000000000000000000000000000000000000000000000000000000600052604160045260246000fd5b61228782612004565b810181811067ffffffffffffffff821117156122a6576122a561224f565b5b80604052505050565b60006122b9611eef565b90506122c5828261227e565b919050565b600067ffffffffffffffff8211156122e5576122e461224f565b5b6122ee82612004565b9050602081019050919050565b82818337600083830152505050565b600061231d612318846122ca565b6122af565b9050828152602081018484840111156123395761233861224a565b5b6123448482856122fb565b509392505050565b600082601f83011261236157612360612245565b5b813561237184826020860161230a565b91505092915050565b6000602082840312156123905761238f611ef9565b5b600082013567ffffffffffffffff8111156123ae576123ad611efe565b5b6123ba8482850161234c565b91505092915050565b6123cc81611f88565b81146123d757600080fd5b50565b6000813590506123e9816123c3565b92915050565b6000806040838503121561240657612405611ef9565b5b600061241485828601612146565b9250506020612425858286016123da565b9150509250929050565b6000806000806080858703121561244957612448611ef9565b5b600061245787828801612146565b945050602061246887828801612146565b935050604061247987828801612091565b925050606085013567ffffffffffffffff81111561249a57612499611efe565b5b6124a68782880161234c565b91505092959194509250565b600080604083850312156124c9576124c8611ef9565b5b60006124d785828601612146565b92505060206124e885828601612146565b9150509250929050565b7f4e487b7100000000000000000000000000000000000000000000000000000000600052602260045260246000fd5b6000600282049050600182168061253957607f821691505b60208210810361254c5761254b6124f2565b5b50919050565b7f4552433732313a20617070726f76616c20746f2063757272656e74206f776e6560008201527f7200000000000000000000000000000000000000000000000000000000000000602082015250565b60006125ae602183611fc9565b91506125b982612552565b604082019050919050565b600060208201905081810360008301526125dd816125a1565b9050919050565b7f4552433732313a20617070726f76652063616c6c6572206973206e6f7420746f60008201527f6b656e206f776e6572206f7220617070726f76656420666f7220616c6c000000602082015250565b6000612640603d83611fc9565b915061264b826125e4565b604082019050919050565b6000602082019050818103600083015261266f81612633565b9050919050565b7f4552433732313a2063616c6c6572206973206e6f7420746f6b656e206f776e6560008201527f72206f7220617070726f76656400000000000000000000000000000000000000602082015250565b60006126d2602d83611fc9565b91506126dd82612676565b604082019050919050565b60006020820190508181036000830152612701816126c5565b9050919050565b7f455243373231456e756d657261626c653a206f776e657220696e646578206f7560008201527f74206f6620626f756e6473000000000000000000000000000000000000000000602082015250565b6000612764602b83611fc9565b915061276f82612708565b604082019050919050565b6000602082019050818103600083015261279381612757565b9050919050565b7f455243373231456e756d657261626c653a20676c6f62616c20696e646578206f60008201527f7574206f6620626f756e64730000000000000000000000000000000000000000602082015250565b60006127f6602c83611fc9565b91506128018261279a565b604082019050919050565b60006020820190508181036000830152612825816127e9565b9050919050565b7f4e487b7100000000000000000000000000000000000000000000000000000000600052603260045260246000fd5b7f4552433732313a20696e76616c696420746f6b656e2049440000000000000000600082015250565b6000612891601883611fc9565b915061289c8261285b565b602082019050919050565b600060208201905081810360008301526128c081612884565b9050919050565b7f4552433732313a2061646472657373207a65726f206973206e6f74206120766160008201527f6c6964206f776e65720000000000000000000000000000000000000000000000602082015250565b6000612923602983611fc9565b915061292e826128c7565b604082019050919050565b6000602082019050818103600083015261295281612916565b9050919050565b600060a08201905061296e600083018861219b565b61297b602083018761219b565b6129886040830186612105565b818103606083015261299a8185612015565b90506129a96080830184612105565b9695505050505050565b600081905092915050565b60006129c982611fbe565b6129d381856129b3565b93506129e3818560208601611fda565b80840191505092915050565b60006129fb82856129be565b9150612a0782846129be565b91508190509392505050565b7f4552433732313a207472616e736665722066726f6d20696e636f72726563742060008201527f6f776e6572000000000000000000000000000000000000000000000000000000602082015250565b6000612a6f602583611fc9565b9150612a7a82612a13565b604082019050919050565b60006020820190508181036000830152612a9e81612a62565b9050919050565b7f4552433732313a207472616e7366657220746f20746865207a65726f2061646460008201527f7265737300000000000000000000000000000000000000000000000000000000602082015250565b6000612b01602483611fc9565b9150612b0c82612aa5565b604082019050919050565b60006020820190508181036000830152612b3081612af4565b9050919050565b7f4552433732313a207472616e7366657220746f206e6f6e20455243373231526560008201527f63656976657220696d706c656d656e7465720000000000000000000000000000602082015250565b6000612b93603283611fc9565b9150612b9e82612b37565b604082019050919050565b60006020820190508181036000830152612bc281612b86565b9050919050565b7f4552433732313a20617070726f766520746f2063616c6c657200000000000000600082015250565b6000612bff601983611fc9565b9150612c0a82612bc9565b602082019050919050565b60006020820190508181036000830152612c2e81612bf2565b9050919050565b7f4e487b7100000000000000000000000000000000000000000000000000000000600052601260045260246000fd5b7f455243373231456e756d657261626c653a20636f6e736563757469766520747260008201527f616e7366657273206e6f7420737570706f727465640000000000000000000000602082015250565b6000612cc0603583611fc9565b9150612ccb82612c64565b604082019050919050565b60006020820190508181036000830152612cef81612cb3565b9050919050565b7f4552433732313a206d696e7420746f20746865207a65726f2061646472657373600082015250565b6000612d2c602083611fc9565b9150612d3782612cf6565b602082019050919050565b60006020820190508181036000830152612d5b81612d1f565b9050919050565b7f4552433732313a20746f6b656e20616c7265616479206d696e74656400000000600082015250565b6000612d98601c83611fc9565b9150612da382612d62565b602082019050919050565b60006020820190508181036000830152612dc781612d8b565b9050919050565b600081519050919050565b600082825260208201905092915050565b6000612df582612dce565b612dff8185612dd9565b9350612e0f818560208601611fda565b612e1881612004565b840191505092915050565b6000608082019050612e386000830187612105565b612e456020830186612105565b612e52604083018561219b565b8181036060830152612e648184612dea565b905095945050505050565b600081519050612e7e81611f2f565b92915050565b600060208284031215612e9a57612e99611ef9565b5b6000612ea884828501612e6f565b91505092915050565b7f4e487b7100000000000000000000000000000000000000000000000000000000600052601160045260246000fd5b6000612eeb82612070565b9150612ef683612070565b9250828203905081811115612f0e57612f0d612eb1565b5b92915050565b7f4e487b7100000000000000000000000000000000000000000000000000000000600052603160045260246000fdfea2646970667358221220765078d3ada20ec714f0fb6dc5023836404f2081aa3e402d2690fc319980505964736f6c63430008130033",
  "immutableReferences": {},
  "source": "// SPDX-License-Identifier: MIT\r\npragma solidity ^0.8.19;\r\n\r\nimport \"../node_modules/@openzeppelin/contracts/token/ERC721/ERC721.sol\";\r\nimport \"../node_modules/@openzeppelin/contracts/token/ERC721/extensions/ERC721Enumerable.sol\";\r\nimport \"../node_modules/@openzeppelin/contracts/token/ERC721/extensions/ERC721URIStorage.sol\";\r\nimport \"../node_modules/@openzeppelin/contracts/access/Ownable.sol\";\r\nimport \"../node_modules/@openzeppelin/contracts/utils/Counters.sol\";\r\n\r\ncontract NFTToken is ERC721Enumerable {\r\n    using Counters for Counters.Counter;\r\n    Counters.Counter private _tokenId;\r\n\r\n    event NFTMinted(\r\n        uint256 _balance,\r\n        uint256 _tokenId,\r\n        address _msgSender,\r\n        string _tokenURI,\r\n        address _tokenOwner\r\n    );\r\n\r\n    constructor() ERC721(\"NFStart\", \"NFS\") {}\r\n\r\n    //  data     . -> ipfs cid   .\r\n    function NFTMint(bytes memory data) public {\r\n        uint256 tokenId = _tokenId.current();\r\n        _tokenId.increment();\r\n        _safeMint(msg.sender, tokenId, data);\r\n    }\r\n\r\n    function testMint() public {\r\n        uint256 tokenId = _tokenId.current(); //   \r\n        _tokenId.increment(); //   \r\n        balanceOf(msg.sender); //    \r\n        _safeMint(msg.sender, tokenId); //  \r\n        tokenURI(tokenId); //  URI  ->  X\r\n        ownerOf(tokenId); //   \r\n        emit NFTMinted(\r\n            balanceOf(msg.sender),\r\n            tokenId,\r\n            msg.sender,\r\n            tokenURI(tokenId),\r\n            ownerOf(tokenId)\r\n        );\r\n    }\r\n}\r\n",
  "sourcePath": "C:\\Users\\effor\\Git\\NFstart\\server\\contracts\\NFTToken.sol",
  "compiler": {
    "name": "solc",
    "version": "0.8.19+commit.7dd6d404.Emscripten.clang"
  },
  "schemaVersion": "3.4.13",
  "updatedAt": "2023-03-24T02:26:54.001Z",
  "networkType": "ethereum",
  "devdoc": {
    "events": {
      "Approval(address,address,uint256)": {
        "details": "`owner` `approved` `tokenId`     ."
      },
      "ApprovalForAll(address,address,bool)": {
        "details": "`owner`     `operator`   (`approved`)  ."
      },
      "Transfer(address,address,uint256)": {
        "details": "`tokenId`  `from` `to`   ."
      }
    },
    "kind": "dev",
    "methods": {
      "approve(address,uint256)": {
        "details": "See {IERC721-approve}."
      },
      "getApproved(uint256)": {
        "details": "See {IERC721-getApproved}."
      },
      "isApprovedForAll(address,address)": {
        "details": "See {IERC721-isApprovedForAll}."
      },
      "name()": {
        "details": "{IERC721Metadata-name} ."
      },
      "ownerOf(uint256)": {
        "details": "{IERC721-ownerOf} ."
      },
      "safeTransferFrom(address,address,uint256)": {
        "details": "See {IERC721-safeTransferFrom}."
      },
      "safeTransferFrom(address,address,uint256,bytes)": {
        "details": "See {IERC721-safeTransferFrom}."
      },
      "setApprovalForAll(address,bool)": {
        "details": "See {IERC721-setApprovalForAll}."
      },
      "supportsInterface(bytes4)": {
        "details": "See {IERC165-supportsInterface}."
      },
      "symbol()": {
        "details": "See {IERC721Metadata-symbol}."
      },
      "tokenByIndex(uint256)": {
        "details": "See {IERC721Enumerable-tokenByIndex}."
      },
      "tokenOfOwnerByIndex(address,uint256)": {
        "details": "See {IERC721Enumerable-tokenOfOwnerByIndex}."
      },
      "tokenURI(uint256)": {
        "details": "See {IERC721Metadata-tokenURI}."
      },
      "totalSupply()": {
        "details": "See {IERC721Enumerable-totalSupply}."
      },
      "transferFrom(address,address,uint256)": {
        "details": "See {IERC721-transferFrom}."
      }
    },
    "version": 1
  },
  "userdoc": {
    "kind": "user",
    "methods": {
      "balanceOf(address)": {
        "notice": "dev {IERC721-balanceOf} ."
      }
    },
    "version": 1
  }
}